:100000000C949D040C942A170C94FF160C94D4168F
:100010000C94A9160C947E160C9453160C94281666
:100020000C94FD150C94CE040C94CE040C94CE04C8
:100030000C9475180C94CE040C94CE040C94CE043D
:100040000C94CE040C9416190C94CE040C94CE048B
:100050000C94CE040C94CE040C94CE040C94B315E2
:100060000C94CE040C947D150C9453150C94CE0472
:100070000C94CE040C94CE040C94CE040C94CE04B8
:100080000C94E8180C94CE040C94CE040C94CE047A
:100090000C94CE040C94CE040C94CE040C945517FE
:1000A0000C94CE040C94CE040C94BA180C94CE0488
:1000B0000C94CE040C94CE040C94CE040C948C18A6
:1000C0000C94CE040C94CE040C94CE040C94CE0468
:1000D0000C94CE040C94CE040C94CE040C94CE0458
:1000E0000C94CE0408000000BE922449123EABAA34
:1000F000AA2ABECDCCCC4C3E00000080BEABAAAA42
:10010000AA3E00000000BF000000803F0000000089
:1001100000084178D3BB4387D1133D190E3CC3BDC2
:100120004282AD2B3E68EC8276BED98FE1A93E4C6F
:1001300080EFFFBE01C4FF7F3F00000000000763A7
:100140004236B79BD8A71A39685618AEBAAB558C49
:100150001D3CB7CC5763BD6DEDFD753EF617723192
:10016000BF000000803F0C94AC110C94B0100C94B4
:100170005F120C9444190C9484110C9417050C9480
:1001800068050C9418050C9493060C944B110C9470
:10019000AF060C9412110C9494110C9476050C94E7
:1001A000D90F0C949D060C9445050C9497060C945D
:1001B000A1060C94AA060C9489060C9416050C94BE
:1001C00074060C9438100C94CD100C94A0110C945F
:1001D0004B0C0C94B3110C94CD0C0C94A5060C9400
:1001E00078060C947C060C9454050C9470060C94C0
:1001F000AE050C94FB050C9485060C947F060C94BC
:1002000001050C945C0C0C94AB060C94070F0C9439
:10021000C0080C948F060C9460120C946A0600407F
:100220007A10F35A00A0724E18090010A5D4E80005
:1002300000E87648170000E40B54020000CA9A3B1D
:10024000000000E1F50500008096980000004042A3
:100250000F000000A0860100000010270000000031
:10026000E803000000006400000000000A00000035
:1002700000000100000000002C76D888DC674F08E1
:1002800023DFC1DFAE59E1B1B796E5E3E453C63AE7
:10029000E651997696E8E6C28426EB898C9B62ED5E
:1002A000407C6FFCEFBC9C9F40F2BAA56FA5F49018
:1002B000055A2AF75C936B6CF9676DC11BFCE0E48F
:1002C0000D47FEF520E6B500D0ED902E03009435E5
:1002D00077050080841E080000204E0A000000C838
:1002E0000C333333330F986E12831141EF8D211489
:1002F000893BE65516CFFEE6DB18D1844B381BF759
:100300007C1D901DA4BBE424203284725E228100F7
:10031000C9F124ECA1E53D2700000000003E5B4F41
:100320005B3E3E6B4F6B3E1C3E7C3E1C183C7E3C55
:10033000181C577D571C1C5E7F5E1C00183C180063
:10034000FFE7C3E7FF0018241800FFE7DBE7FF30F3
:10035000483A060E2629792926407F050507407F61
:1003600005253F5A3CE73C5A7F3E1C1C08081C1CD4
:100370003E7F14227F22145F5F005F5F06097F01CA
:100380007F006689956A606060606094A2FFA294B5
:1003900008047E040810207E201008082A1C080883
:1003A0001C2A08081E101010100C1E0C1E0C3038D1
:1003B0003E3830060E3E0E06000000000000005FD2
:1003C00000000007000700147F147F14242A7F2AEE
:1003D00012231308646236495620500008070300B0
:1003E000001C2241000041221C002A1C7F1C2A08FC
:1003F000083E08080080703000080808080800005F
:1004000060600020100804023E5149453E00427FD2
:10041000400072494949462141494D331814127F21
:100420001027454545393C4A4949314121110907C1
:100430003649494936464949291E00001400000042
:100440004034000000081422411414141414004114
:1004500022140802015909063E415D594E7C1211D1
:10046000127C7F494949363E414141227F41414109
:100470003E7F494949417F090909013E4141517384
:100480007F0808087F00417F41002040413F017FF5
:10049000081422417F404040407F021C027F7F04BD
:1004A00008107F3E4141413E7F090909063E415106
:1004B000215E7F09192946264949493203017F01F6
:1004C000033F4040403F1F2040201F3F4038403FF7
:1004D000631408146303047804036159494D43000D
:1004E0007F4141410204081020004141417F040244
:1004F00001020440404040400003070800205454DB
:1005000078407F28444438384444442838444428B8
:100510007F385454541800087E090218A4A49C780B
:100520007F0804047800447D40002040403D007F67
:100530001028440000417F40007C047804787C0847
:100540000404783844444438FC182424181824241B
:1005500018FC7C08040408485454542404043F4400
:10056000243C4040207C1C2040201C3C4030403C2F
:1005700044281028444C9090907C4464544C44008F
:1005800008364100000077000000413608000201F3
:100590000204023C2623263C1EA1A161123A4040DF
:1005A000207A38545455592155557941225454785C
:1005B00042215554784020545579400C1E527212F5
:1005C000395555555939545454593955545458007E
:1005D00000457C410002457D420001457C407D1282
:1005E00011127DF0282528F07C54554500205454E4
:1005F0007C547C0A097F4932494949323A4444448F
:100600003A324A4848303A4141217A3A42402078C9
:10061000009DA0A07D3D4242423D3D4040403D3CCA
:1006200024FF2424487E4943662B2FFC2F2BFF09EF
:1006300029F620C0887E09032054547941000044E3
:100640007D413048484A32384040227A007A0A0ACE
:10065000727D0D19317D2629292F28262929292641
:1006600030484D4020380808080808080808382F86
:1006700010C8ACBA2F102834FA00007B0000081410
:100680002A142222142A14085500550055AA55AAE6
:1006900055AAFF55FF55FF000000FF00101010FF86
:1006A00000141414FF001010FF00FF1010F010F0E1
:1006B000141414FC001414F700FF0000FF00FF14D2
:1006C00014F404FC141417101F10101F101F14141E
:1006D000141F00101010F0000000001F1010101068
:1006E0001F10101010F010000000FF10101010105C
:1006F00010101010FF10000000FF140000FF00FF9A
:1007000000001F10170000FC04F414141710171435
:1007100014F404F40000FF00F71414141414141457
:10072000F700F7141414171410101F101F141414CA
:10073000F4141010F010F000001F101F0000001F34
:1007400014000000FC140000F010F01010FF10FF67
:10075000141414FF141010101F00000000F010FFFC
:10076000FFFFFFFFF0F0F0F0F0FFFFFF00000000E0
:1007700000FFFF0F0F0F0F0F3844443844FC4A4A64
:100780004A347E02020606027E027E026355494119
:10079000633844443C04407E201E2006027E020250
:1007A00099A5E7A5991C2A492A1C4C7201724C3064
:1007B0004A4D4D303048784830BC625A463D3E493B
:1007C0004949007E0101017E2A2A2A2A2A44445FDF
:1007D000444440514A444040444A51400000FF01D3
:1007E00003E080FF000008086B6B083612362436E1
:1007F000060F090F06000018180000001010003046
:1008000040FF0101001F01011E00191D1712003CCD
:100810003C3C3C000000000000000A0B02090C0DEB
:100820000E080703040100000000000000000000A3
:1008300000000000000000000000000000000000B8
:100840000000000012111000000000000000000075
:100850000000000000000000000000000000000098
:100860002100240027002A002D0030003300010160
:100870000000040107010A010000200023002600F7
:1008800029002C002F0032000001000003010601A6
:10089000090101021020200808102040102040808B
:1008A0000201020108040201010204081020408034
:1008B00080402010080402018004020180402010C2
:1008C000080402010804020101020408102040800B
:1008D00001020408102040800000220025002800AA
:1008E0002B002E0031003400020100000501080138
:1008F0000B010505050507050808080802020202A4
:100900000A0A0808040404040101010101010101AB
:100910000303030303030303040707070C0C0C0C76
:100920000C0C0C0C0202020206060606060606065F
:100930000B0B0B0B0B0B0B0B441911241FBECFEF32
:10094000D1E2DEBFCDBF00E00CBF14E0A0E0B2E01A
:10095000E6E3F4E500E00BBF02C007900D92AE396C
:10096000B107D9F726E0AEE9B4E001C01D92AE3C74
:10097000B207E1F714E0CDE9D4E000E006C021972A
:100980000109802FFE010E94DB27CC39D10780E0CE
:100990000807A9F70E94041B0C94192A0C94000064
:1009A0003FB7F8948091180590911905A0911A0508
:1009B000B0911B0526B5A89B05C02F3F19F00196E5
:1009C000A11DB11D3FBFBA2FA92F982F8827BC01A9
:1009D000CD01620F711D811D911D42E0660F771FD1
:1009E000881F991F4A95D1F708952FB7F894609101
:1009F00014057091150580911605909117052FBF6C
:100A000008950E94F50428EE33E040E050E00E9493
:100A1000ED24CA01B9010895FC0120812EBD0DB459
:100A200007FEFDCF2EB5FC0120830895089508959B
:100A3000AF92BF92CF92DF92EF92FF920F931F93EC
:100A4000CF93DF936C017B018B01040F151FEB012A
:100A50005E01AE18BF08C017D10759F06991D601E1
:100A6000ED91FC910190F081E02DC6011995892B43
:100A700079F7C501DF91CF911F910F91FF90EF9012
:100A8000DF90CF90BF90AF900895FC01538D448DBF
:100A9000252F30E0842F90E0821B930B541710F029
:100AA000CF96089501970895FC01918D828D981736
:100AB00061F0A28DAE0FBF2FB11D5D968C91928D0E
:100AC0009F5F9F73928F90E008958FEF9FEF08953F
:100AD000FC01918D828D981731F0828DE80FF11D08
:100AE000858D90E008958FEF9FEF0895FC01918D23
:100AF000228D892F90E0805C9F4F821B91098F731C
:100B00009927089585E295E00E94760521E0892BDA
:100B100009F420E0822F0895FC01A48DA80FB92FBD
:100B2000B11DA35ABF4F2C91848D90E001968F7315
:100B30009927848FA689B7892C93A089B1898C9134
:100B4000837080648C93938D848D981306C0028883
:100B5000F389E02D80818F7D80830895EF92FF924D
:100B60000F931F93CF93DF93EC0181E0888F9B8DD0
:100B70008C8D98131AC0E889F989808185FF15C08A
:100B80009FB7F894EE89FF896083E889F9898081AD
:100B90008370806480839FBF81E090E0DF91CF917C
:100BA0001F910F91FF90EF900895F62E0B8D10E09E
:100BB0000F5F1F4F0F731127E02E8C8D8E110CC00D
:100BC0000FB607FCFACFE889F989808185FFF5CF58
:100BD000CE010E948C05F1CFEB8DEC0FFD2FF11DA6
:100BE000E35AFF4FF0829FB7F8940B8FEA89FB8995
:100BF00080818062CFCFCF93DF93EC01888D8823F3
:100C0000B9F0AA89BB89E889F9898C9185FD03C06F
:100C1000808186FD0DC00FB607FCF7CF8C9185FF54
:100C2000F2CF808185FFEDCFCE010E948C05E9CF08
:100C3000DF91CF91089580E090E0892B29F00E9408
:100C4000820581110E94000080E090E0892B49F02C
:100C500080E090E0892B29F00E94000081110E9421
:100C6000000080E090E0892B49F080E090E0892B43
:100C700029F00E94000081110E94000080E090E0B5
:100C8000892B49F080E090E0892B29F00E94000038
:100C900081110C94000008958150823108F05AC0EF
:100CA000E82FF0E08827E85AF94F8F4F0C94DB27A4
:100CB00078067C066A0670067406AA067F06850614
:100CC00089068F06930697069D06A106AA06A50625
:100CD000AB06AF06809180008F77809380000895E7
:100CE000809180008F7DF9CF80918000877FF5CF44
:100CF00084B58F7784BD089584B58F7DFBCF8091B7
:100D0000B0008F778093B00008958091B0008F7D00
:100D1000F9CF809190008F77809390000895809113
:100D200090008F7DF9CF80919000877FF5CF8091E3
:100D3000A0008F778093A00008958091A0008F7D00
:100D4000F9CF8091A000877FF5CF809120018F7728
:100D5000809320010895809120018F7DF9CF8091AB
:100D60002001877FF5CFCF93DF93282F30E0F90163
:100D7000E85EF74F8491F901EE56F74FD491F901EF
:100D8000EE50F74FC491CC23A1F081110E944C0684
:100D9000EC2FF0E0EE0FFF1FE858F74FA591B4914C
:100DA000EC91ED2381E090E009F480E0DF91CF91B8
:100DB000089580E090E0FACF1F93CF93DF93282F20
:100DC00030E0F901E85EF74F8491F901EE56F74FF4
:100DD000D491F901EE50F74FC491CC23A9F0162F0E
:100DE00081110E944C06EC2FF0E0EE0FFF1FE8523D
:100DF000F74FA591B4918FB7F894EC91111108C0F9
:100E0000D095DE23DC938FBFDF91CF911F910895A2
:100E1000DE2BF8CFCF93DF9390E0FC01EE56F74F37
:100E200024918E50974FFC0184918823D1F090E05B
:100E3000880F991FFC01E25AF74FA591B491FC016C
:100E4000E852F74FC591D49161110EC09FB7F89445
:100E50008C91E22FE0958E238C932881E223E88306
:100E60009FBFDF91CF9108958FB7F894EC91E22B5B
:100E7000EC938FBFF6CF865320917B00982F987FFD
:100E8000277F922B90937B008770806480937C00F7
:100E900080917A00806480937A0080917A0086FD48
:100EA000FCCF80917800909179000895823091056F
:100EB00038F0880F991F880F991F05970197F1F750
:100EC00008959F92AF92BF92CF92DF92EF92FF92DE
:100ED0000F931F93CF93DF93EC016B018885998566
:100EE00011E0892B09F010E8F601A0808A2D8123FA
:100EF000992493948111912C2C813D814E815F81A5
:100F000060E271EA87E090E00E94ED24022FB12CAC
:100F1000E22EF12C002319F0C7010E9456078A85A2
:100F2000877F09F04FC08D858F3F89F09A2D9123DF
:100F300081E009F480E0891551F0EF85F8898F8907
:100F40009923D1F19081892B808399249394E98905
:100F5000FA898081998D892B8083002319F0C7013C
:100F60000E9456078E858F3F39F0EB89FC8980817E
:100F7000988D892309F0B12AE989FA899081898DB0
:100F80008095892380838E858F3F11F0F601B08292
:100F900088859985892B09F044C0110F1111BACFAA
:100FA000DF91CF911F910F91FF90EF90DF90CF9045
:100FB000BF90AF909F900895908180958923808302
:100FC000912CC5CFE989FA898081998D892B8083FD
:100FD000002319F0C7010E9456078D858F3F49F005
:100FE000EF85F8898F899A2D9123B9F09081892B0B
:100FF0008083E989FA899081898D8095892380830E
:101000008E858F3F09F4BFCFEB89FC898081988D55
:10101000892309F4B8CFB12AB6CF9081809589236E
:10102000E7CF1695BBCFAF92BF92CF92DF92EF92F0
:10103000FF920F931F93CF93DF931F92CDB7DEB72D
:101040008C015B016A01DC018D919C911197892BC8
:1010500039F01296ED91FC91908181819CBD8DBDFE
:10106000F80183858F3F19F060E00E94DC0675016E
:10107000CA0CDB1CCE14DF04A9F0D7018D917D01D1
:101080008983F80180819181892B29F0CE01019615
:101090000E940C05EFCFBE016F5F7F4FC8010E9419
:1010A0006107E8CFD8011B968C918F3F19F061E062
:1010B0000E94DC0681E00F90DF91CF911F910F918C
:1010C000FF90EF90DF90CF90BF90AF9008958F92F8
:1010D0009F92AF92BF92CF92DF92EF92FF924B011D
:1010E0005C010E94D0046B017C010E94D0046C1949
:1010F0007D098E099F09683E734081059105A8F31B
:1011000021E0821A9108A108B10888EEC80E83E098
:10111000D81EE11CF11C81149104A104B10429F72B
:10112000FF90EF90DF90CF90BF90AF909F908F9007
:1011300008952091C904260F3327331F213231052A
:10114000ECF42091ED04FC0190E080E0243069F0A3
:1011500082E00895A091C9042191AC0147555B4FED
:10116000A40FB52FB11D2C930196861798F380918B
:10117000C904680F6093C90480E0089581E0089570
:1011800008958FEF9FEF08958FEF9FEF089580915F
:10119000A20490E09195819591090895CF93DF93F2
:1011A000CB01EA01642F0E949908CE01DF91CF9113
:1011B0000895CF93DF931F92CDB7DEB7698361E0C7
:1011C000CE0101960E94990881E090E00F90DF9196
:1011D000CF9108954115510529F4EAE7F0E08081A7
:1011E0008F7780836A307105B9F0CB01880F991F22
:1011F000880F991F807267706860682B88E10FB64E
:10120000F894A895809360000FBE60936000E0E6BC
:10121000F0E0808180648083232BB1F483B7817FE9
:10122000846083BFF89483B7816083BF7894889586
:1012300083B78E7F83BF7894452B29F4EAE7F0E0EB
:10124000808180688083089583B7817F846083BFB5
:10125000F89483B7816083BF7894889583B78E7F35
:1012600083BF7894E9CFCF92DF92EF92FF92CF9332
:10127000DF93EC01603282E07807CCF5653B7105C5
:1012800014F064EB70E0898128E830E0281B310914
:1012900087FD3395220F331F220F331F6901330F50
:1012A000EE08FF088A8128E532E0281B310987FD16
:1012B0003395220F331F220F331F032E000C440BD4
:1012C000550B2C193D094E095F09DB0177FF02C060
:1012D000B0E0A0E00E94E52424EB30E040E050E0E4
:1012E0000E94BB24C20ED31EE41EF51EB601E88187
:1012F000E03370F5298188E890E0821B910927FD91
:101300009395880F991F880F991F681779077CF0AC
:101310002A8188E592E0821B910927FD9395880F29
:10132000991F880F991F681779070CF4CB01029752
:10133000880F991F4FB7F8942E2F30E0F901EE0F68
:10134000FF1FE20FF31FEE53FA4F928381834FBFCB
:10135000DF91CF91FF90EF90DF90CF9008951F9392
:10136000CF93DF93EC01162F8881803308F04EC0B5
:1013700061E0812F0E940A078881282F30E0F9015F
:10138000EE0FFF1FE20FF31FEE53FA4F1F73608142
:10139000607C612B608319821A822CE0622F0E948C
:1013A000BB27829FB001112430E020E0AB01420F47
:1013B000531FFA01EE0FFF1FE40FF51FEE53FA4F14
:1013C000908196FD16C02F5F3F4F2C30310571F78D
:1013D000813009F51092800082E0809381001092A4
:1013E000850010928400B19A80916F008260809392
:1013F0006F00E8818E2F90E0FC01EE0FFF1FE80FD9
:10140000F91FEE53FA4F8081806480838881DF91D9
:10141000CF911F910895823061F4109290008093D3
:101420009100109295001092940088BB80937100F7
:10143000E0CF833069F41092A00082E08093A10095
:101440001092A5001092A40089BB80937200D1CFA6
:101450008111CFCF1092200182E080932101109260
:101460002501109224018ABB80937300C2CFAF92F2
:10147000BF92CF92DF92EF92FF920F931F93CF9381
:10148000DF936B017A01EC01C256DB4F28813CE00F
:10149000389F8001399F100D1124A0905206B12C65
:1014A00027FF1FC0FB011182108288818F5F888314
:1014B00088819801280F311D87FD3A95F6012A157C
:1014C0003B051CF488818C30C4F1808191810496A5
:1014D00080349C4908F473C0F601808191810496A0
:1014E00070C088819801280F311D87FD3A952A1513
:1014F0003B05DCF68881A801480F511D87FD5A95F0
:10150000FA01EE0FFF1FE40FF51FEE53FA4F808133
:1015100086FFCBCF8881F801E80FF11D87FDFA9592
:10152000CF01EE0FFF1FE80FF91FEE53FA4F808136
:1015300060E08F730E94DC06B8CF808191812881A2
:10154000A801420F511D27FD5A959A01FA01EE0F8D
:10155000FF1FE20FF31FEE53FA4F21813281820FFA
:10156000931FF7019183808388819801280F311D93
:1015700087FD3A95F901EE0FFF1FE20FF31FEE53BF
:10158000FA4F808186FF22C08881080F111D87FDD8
:101590001A95F801EE0FFF1FE00FF11FEE53FA4FFF
:1015A000808161E08F73DF91CF911F910F91FF9048
:1015B000EF90DF90CF90BF90AF900C94DC0680E46A
:1015C0009CE9F701918380838FEF8883DF91CF912E
:1015D0001F910F91FF90EF90DF90CF90BF90AF9051
:1015E00008950F931F93CF93DF93EC018A899B8912
:1015F000AC89BD89892B8A2B8B2B11F41D821C820F
:101600008C819D818130910541F0029709F43FC0A2
:10161000DF91CF911F910F9108950E94F5040E89DB
:101620001F89288D398D601B710B820B930B0E85E2
:101630001F8528893989601771078207930740F34E
:1016400082E090E09D838C8361E08A819B81892B7D
:1016500009F060E0862F90E09B838A8388810E9456
:10166000DC060E94F5046E8B7F8B888F998F8A89A8
:101670009B89AC89BD890097A105B10549F2019705
:10168000A109B1098A8B9B8BAC8BBD8BC1CF8A81A1
:101690009B81892BC9F08A819B81019709F0B8CF82
:1016A0000E94F5040E891F89288D398D601B710BEE
:1016B000820B930B0E811F81288539856017710776
:1016C0008207930708F6A4CF0E94F5040E891F89AC
:1016D000288D398D601B710B820B930B0A851B853E
:1016E0002C853D856017710782079307A0F2ACCF68
:1016F0000F931F93CF93DF931F92CDB7DEB78C016B
:10170000698360E0FC01868D0E94DC0641E050E0C8
:10171000BE016F5F7F4FF801838D948D0E94130887
:101720000F90DF91CF911F910F910895CF938091EA
:10173000700687FD13C061E00E940A0760E0809197
:1017400070060E94DC0661E070E080E090E00E949C
:10175000670861E0809170060E94DC06C091730604
:10176000C83008F0C7E0C093730661E283E596E0F5
:101770000E94780B6C2F606183E596E00E94780BE5
:1017800060E283E596E00E94780BC0917206C7FD87
:10179000CFE7C093720661E283E596E00E94780B82
:1017A0006C2F606883E596E00E94780B60E283E529
:1017B00096E00E94780B60E283E596E00E94780B49
:1017C0006CE083E596E0CF910C94780BFF920F9339
:1017D0001F93CF93DF9390917406992339F08091F2
:1017E00075068F5F8917E8F580937506D0917806A6
:1017F000D695D695D69584E5D89F80011124809101
:1018000079068695869586958D1780F16D2F606493
:1018100083E596E00E94780BC0917606F0907706FB
:101820006C2F606883E596E00E94780B61E0809100
:1018300071060E94DC064F2D50E06C2F70E0461BB5
:10184000570B4F5F5F4F600F711F605F7D4F80913F
:101850006E0690916F060E941308DF5F0C5A1F4FAF
:10186000CECF109275060E94960BC0CF60E483E540
:1018700096E00E94780B83E58093760610927706B7
:101880008FE28093780610927906DF91CF911F91B5
:101890000F91FF9008951F93CF93DF93EC01162FC4
:1018A00060E20E94780B6CE011116DE0CE01DF91D7
:1018B000CF911F910C94780BFC0177FD55C080856A
:1018C0009185681779070CF04FC057FD4DC0828590
:1018D0009385481759070CF047C08689823009F470
:1018E00044C0833009F44EC0813031F48FE290E07F
:1018F000861B970BBA01AC01842FA62F93A1691701
:1019000008F4962F93A394A19A1708F49A2F94A3FE
:1019100095A1891708F4982F95A396A1981708F414
:10192000982F96A3CA0157FD0796E3E095958795F2
:10193000EA95E1F7A4E5A89FF001A99FF00D112415
:10194000E60FF71FE05FFD4FCA0168E070E00E94FC
:10195000C72741E050E001C0440F8A95EAF7808133
:10196000232BB9F0842B8083089583E590E0DC017C
:10197000A61BB70BBD018FE290E0DC01A41BB50BE9
:10198000AD01BACF83E590E0841B950BAB01BC01A0
:10199000B3CF40958423E7CF0895FC016370668B35
:1019A0008481958126813781613039F0633029F057
:1019B000918780873387228708953187208793878F
:1019C000828708952F923F924F925F926F927F92FB
:1019D0008F929F92AF92BF92CF92DF92EF92FF923F
:1019E0000F931F93CF93DF93CDB7DEB76A970FB6F0
:1019F000F894DEBF0FBECDBF9A8F898F7A8369833B
:101A00004A01D22E18870F833701BC2CDC0159966E
:101A10002D913C915A972115310509F015C1189661
:101A20008D919C911997681779070CF0D7C11A9678
:101A30008D919C91481759070CF0D0C14C2C512C1A
:101A4000B6E0CB9E600D711D11247C876B87161646
:101A500017060CF0C3C1EA2DF0E0FA87E98793E09E
:101A6000EE0FFF1F9A95E1F7F88BEF87CF01840FF8
:101A7000951F181619060CF0B1C1A98DBA8D58968C
:101A80008C91811104C0BFEABD1508F4D394A98DCF
:101A9000BA8DED91FC9111970284F385E02DCD0173
:101AA0001995B5E0DB9EC0011124E981FA81FC8320
:101AB000EB83312C212C9C01285E3C4F388F2F8BDF
:101AC0004A2D50E05E8B4D8BEF89F88DE20DF31DB2
:101AD00044919E828D82D12CC12C69817A81620DC4
:101AE000731D7A8B698B842F90E09C8B8B8BE98D97
:101AF000FA8DA081B18140FF82C0F1E0BF126FC0BA
:101B0000AF126DC01C96ED91FC912F813885A40118
:101B10004C0D5D1D69897A89898D9A8D1995EB899E
:101B2000FC89F595E7954E2F5FEFC51AD50A6D81B3
:101B30007E818D899E89680F791F7E836D8398E0F1
:101B4000C916D10481F6AFEF2A1A3A0AEB81FC815B
:101B5000E40DF51DFC83EB83F5E02F16310409F04D
:101B6000B3CF2F81388526153705B9F0A98DBA8DE9
:101B7000ED91FC91B1E0BB1257C0AB1255C0698129
:101B80007A816B5F7F4F0088F189E02D830128E027
:101B900030E0A401898D9A8D1995A98DBA8DED91AA
:101BA000FC9111970688F789E02DCD016A960FB652
:101BB000F894DEBF0FBECDBFDF91CF911F910F9183
:101BC000FF90EF90DF90CF90BF90AF909F908F905D
:101BD0007F906F905F904F903F902F9019941E963A
:101BE000ED91FC91EF80F88409851A8592014D8171
:101BF0005E816B817C81898D9A8D199590CF2F8123
:101C000038852615370509F48ACF31E0B31207C0AD
:101C1000A31205C01C96ED91FC91930178CF1E96FE
:101C2000ED91FC917301E0CF6B857C85641975099A
:101C30000684F785E02D73010F8518899201A401B0
:101C4000898D9A8D1995A9CFF9013496949132977F
:101C500045915491D91AB7E0DB9E400D511D1124D6
:101C6000F901259134913C8B2B8BFA01259034900E
:101C7000FA013296749031963491398B3296649091
:101C80003196449041E04C1518F04A1508F07FC099
:101C9000662D062C000C770B7C836B83842D042C23
:101CA000000C990B9E838D83A98DBA8DED91FC91CB
:101CB00011970284F385E02DCD011995512CD12C7B
:101CC000C12CEA2DF0E0FA87E9872B2D30E03C8724
:101CD0002B87A401440D511D47FC5A95588F4F8BFB
:101CE00069817A81660D711D67FC7A957E876D87A3
:101CF0007989C71608F051CF2C2D30E04D815E81D7
:101D0000420F531FA985BA854A9FC0014B9F900D72
:101D10005A9F900D1124FC01E80DF91DF88BEF87F7
:101D2000852D612C4F89588D420F531F5E8B4D8B33
:101D3000671408F050C044244394480E877041F45F
:101D4000C1010196EB89FC89E20DF31DD4901C01C1
:101D5000D7FE19C0A98DBA8DED91FC91662D70E06A
:101D6000B1E0BB1219C0AB1217C02D853E85620FC2
:101D7000731F0484F585E02D2F8138854D895E8998
:101D8000898D9A8D1995DD0C6394842DD1CF1E8297
:101D90001D821C821B8288CF4B815C81640F751F62
:101DA000AB85BC856A9FC0016B9F900D7A9F900D9B
:101DB000112469817A81680F791F0684F785E02DE7
:101DC000EF80F88409851A859D014F855889898D92
:101DD0009A8D1995D8CF570CC3948ACF6A960FB6AF
:101DE000F894DEBF0FBECDBFDF91CF911F910F9151
:101DF000FF90EF90DF90CF90BF90AF909F908F902B
:101E00007F906F905F904F903F902F9008958F92AA
:101E10009F92AF92CF92EF92FF920F931F93CF9327
:101E2000DF93EC01262F898D9A8D009709F051C020
:101E30006A30D1F41D861C868D8948E0849F90010C
:101E400011248E859F85820F931F9F878E8781E047
:101E500090E0DF91CF911F910F91FF90EF90CF9085
:101E6000AF909F908F9008956D3089F3CC88AD88A6
:101E70008F898823C1F08C859D8536E0C39E800DB7
:101E8000911D1124488559854817590764F44E85DA
:101E90005F851D861C8638E0A39EC0011124840F37
:101EA000951F9F878E87EA88FB88088919894E8548
:101EB0005F856C857D85CE010E94E20C2C898C8526
:101EC0009D8546E0249F800D911D11249D878C8760
:101ED000BECF6A3069F41D861C86FC013896E491F9
:101EE0002D898E859F85E29F800D911D1124ADCF98
:101EF0006D3009F4ACCFFC0134963491631708F4CB
:101F0000A6CF3296E491E61708F4A1CFFC013296F1
:101F100085909490462F431B342F47E0349F800CCC
:101F2000911C1124F401329634913196E4913323BB
:101F3000A9F1EE2399F1CC88F4013596E491AD88AE
:101F40004F89442301F10E2E000CFF0BE30FF11D0E
:101F5000CE9EA001CF9E500D11246C857D85460F2D
:101F6000571F68857985641775076CF44E855F8502
:101F70001D861C86FC013896E491AE9E400D511DD5
:101F800011245F874E87EA88FB88088919894E8566
:101F90005F856C857D85CE010E94E20CF40134964C
:101FA000E4912C898C859D85E29F800D911D1124E3
:101FB0008DCF6F927F928F929F92AF92BF92CF926E
:101FC000DF92EF92FF920F931F93CF93DF93EC0179
:101FD0006B015A0139014801E881F9810284F385D6
:101FE000E02D1995E881F9810288F389E02D8701B8
:101FF0009301A501B601CE011995A501480D591D02
:1020000041505109E881F9810288F389E02D93015B
:10201000B601CE011995E881F9810088F189E02D9A
:102020009401A501B601CE011995C60CD71CB601C5
:1020300061507109E881F9810088F189E02D9401EE
:10204000A501CE011995E881F9810688F789E02D6F
:10205000CE01DF91CF911F910F91FF90EF90DF9014
:10206000CF90BF90AF909F908F907F906F9019947A
:102070006F927F928F929F92AF92BF92CF92DF9298
:10208000EF92FF920F931F93CF93DF935C01EB01CD
:102090006A01490138018701DC01ED91FC91621769
:1020A000730719F5641675062CF0962D872D3A01E5
:1020B000C92ED82E9601261937092F5F3F4F048C61
:1020C000F58DE02DA301BE01C5011995DF91CF91DA
:1020D0001F910F91FF90EF90DF90CF90BF90AF9046
:1020E0009F908F907F906F9008954615570591F4BB
:1020F0002617370724F0892D4B01C22FD82F9E01B8
:10210000281939092F5F3F4F068CF78DE02DA60166
:10211000B401DACF0284F385E02D1995D501ED9154
:10212000FC910488F589E02D83019401A601BE018C
:10213000C5011995D501ED91FC910688F789E02D2F
:10214000C501DF91CF911F910F91FF90EF90DF902C
:10215000CF90BF90AF909F908F907F906F90199489
:10216000EF92FF920F931F93DC011A960D911C9131
:102170001B9718962D913C911997ED91FC9100A019
:10218000F1A1E02D7B0150E040E070E060E01995A6
:102190001F910F91FF90EF9008954F925F926F9271
:1021A0007F928F929F92AF92BF92CF92DF92EF92E7
:1021B000FF920F931F93CF93DF936C012B015A0172
:1021C00039014801DC01ED91FC910284F385E02D99
:1021D0001995E201640C751CD601ED91FC91C615B0
:1021E000D7055CF40088F189E02D87019401A501F1
:1021F000BE01C60119952196EFCF0688F789E02D1B
:10220000C601DF91CF911F910F91FF90EF90DF906A
:10221000CF90BF90AF909F908F907F906F905F9086
:102220004F9019948F929F92AF92BF92CF92DF926C
:10223000EF92FF920F931F93CF93DF93EC015B011B
:102240004A016901E881F9810284F385E02D19953D
:1022500095012C0D3D1D21503109E881F98104883B
:10226000F589E02D78018401A401B501CE0119950D
:10227000E881F9810688F789E02DCE01DF91CF91C1
:102280001F910F91FF90EF90DF90CF90BF90AF9094
:102290009F908F9019948F929F92AF92BF92CF92FE
:1022A000DF92EF92FF920F931F93CF93DF93EC0196
:1022B0005B014A0169017801E881F9810284F385B3
:1022C000E02D1995C80CD91C860101501109E8812F
:1022D000F9810488F589E02D9501A401B501CE01AD
:1022E0001995E881F9810688F789E02DCE01DF9103
:1022F000CF911F910F91FF90EF90DF90CF90BF9003
:10230000AF909F908F901994EF92FF920F931F932D
:10231000DC01ED91FC9100A0F1A1E02D19951F9138
:102320000F91FF90EF9008950F931F93DC01ED91B3
:10233000FC91068CF78DE02D19951F910F91089552
:102340000F931F93DC01ED91FC91048CF58DE02D32
:1023500019951F910F910895DC01ED91FC91008476
:10236000F185E02D19942F923F924F925F926F92D8
:102370007F928F929F92AF92BF92CF92DF92EF9215
:10238000FF920F931F93CF93DF9300D000D0CDB770
:10239000DEB73C016A013E832D83FC82EB8258014B
:1023A000A41AB50AB7FE03C0B194A194B1088D80F8
:1023B0009E80861A970A97FE03C091948194910893
:1023C0008A149B045CF0902F812F0D811E819D83C8
:1023D0008E839C2D8D2D6B01692F782F0C151D057B
:1023E0005CF09D818E817E836D83692F782F902F85
:1023F000812F8601C92ED82E1601201A310A2B01F1
:102400002D813E81421A530A57FE03C051944194D4
:102410005108710137FE03C03FEFE31AF30AF59448
:10242000E7948D819E81861797075CF5A1E0B0E067
:10243000BA83A983C016D1064CF1D301ED91FC916A
:102440000484F585E02D2B813C81A8016D817E817E
:102450008A149B041CF04D815E81B801C30119955B
:10246000E418F508F7FE0AC02D813E8189819A8122
:10247000280F391F3E832D83E20CF31C0F5F1F4F83
:10248000D9CF2FEF3FEF3A832983D4CF26960FB6CB
:10249000F894DEBF0FBECDBFDF91CF911F910F919A
:1024A000FF90EF90DF90CF90BF90AF909F908F9074
:1024B0007F906F905F904F903F902F900895089578
:1024C00090E080E00895FB0101900020E9F731974A
:1024D000AF01461B570BDC01ED91FC910280F381AB
:1024E000E02D19948F929F92AF92BF920F931F93FA
:1024F000CF93DF93CDB7DEB7A1970FB6F894DEBFC9
:102500000FBECDBF19A2423008F44AE08E010F5D24
:102510001F4F842E912CB12CA12CA50194010E9457
:10252000ED24E62FB901CA01EA3004F5E05DD801D7
:10253000EE938D01232B242B252B79F790E080E05F
:10254000109729F0BD0183E596E00E946312A196E1
:102550000FB6F894DEBF0FBECDBFDF91CF911F91B4
:102560000F91BF90AF909F908F900895E95CDFCF5F
:102570004F925F926F927F928F929F92AF92BF9293
:10258000CF92DF92EF92FF926B017C01AC019B0135
:102590000E94D1266CE474E081111AC046015701F3
:1025A000E894B7F82FEF3FEF4FE75FE7C501B401BD
:1025B0000E94D126811126C02FEF3FEF4FE75FE742
:1025C000C501B4010E9489231816E4F460E574E0A3
:1025D00083E596E00E9463127C0168E574E083E580
:1025E00096E00E9463128E0D9F1DFF90EF90DF908A
:1025F000CF90BF90AF909F908F907F906F905F90A3
:102600004F9008952FEF3FEF4FE75FE4C701B6010A
:102610000E942C2618161CF464E574E0D9CF2FEF25
:102620003FEF4FE75FECC701B6010E94892387FDAA
:10263000F3CF20E030E0A901C701B6010E94892351
:10264000B12CA12C87FF0AC06DE283E596E00E94C1
:10265000070F5C01F7FAF094F7F8F0942AE037EDF1
:1026600043EA5BE3C701B6010E941F252B013C0131
:102670000E94FD256B017C010E948E239B01AC0111
:10268000C301B2010E941E252B013C014AE0C70193
:10269000B6010E9472127C01EA0CFB1C6EE283E51B
:1026A00096E00E94070FE80EF91E20E030E040E2BD
:1026B00051E4C301B2010E94EF232B013C010E94AF
:1026C000FD254B01B12CA12C4AE0C501B4010E94AB
:1026D0007212E80EF91EC501B4010E948E239B01FF
:1026E000AC01C301B2010E941E2520E030E040E2AF
:1026F00051E40E94EF230E94FD2590E080E04AE033
:102700000E947212E80EF91E68CFE0E1F2E088EF55
:1027100091E0DF019C011D9221503040E1F71092C1
:10272000760680917706833508F483E580937706F3
:1027300010927806809179068F3208F48FE28093A8
:1027400079061092600610925F061092620610924F
:1027500061060895CF93DF93EC01888199810097FA
:1027600011F00E949A28198218821D821C821B82F5
:102770001A82DF91CF910895FC01808191810097A9
:1027800011F00C949A2808950E94042A0F931F9325
:10279000CF93DF93EC0188819981009759F02A81CA
:1027A0003B812617370730F081E0DF91CF911F91F1
:1027B0000F9108958B016F5F7F4F0E94232900972F
:1027C00059F0998388831B830A832C813D81232BB5
:1027D00059F7FC011082E8CF80E0E7CF0F931F93F9
:1027E000CF93DF93EC010C811D810F5F1F4FB80168
:1027F0000E94C613882391F0288139818C819D81A4
:102800006BE574E0820F931F0E94122A1D830C83D4
:10281000CE01DF91CF911F910F910895CE010E94BB
:10282000AA13F6CFEF92FF920F931F93CF93DF93EC
:10283000EC01FB01E080F180E114F10411F104816D
:10284000158101151105A9F08C819D81080F191FB3
:10285000B801CE010E94C613882399F028813981DE
:102860008C819D81B701820F931F0E94122A1D83C4
:102870000C83CE01DF91CF911F910F91FF90EF90CC
:102880000895CE010E94AA13F4CFEF92FF920F9306
:102890001F93CF93DF93EC017B018A01BA010E9461
:1028A000C61381110BC0CE010E94AA13CE01DF9185
:1028B000CF911F910F91FF90EF9008951D830C838E
:1028C000B701888199810E94122AF0CFEF92FF927E
:1028D0000F931F93CF93DF93CDB7DEB762970FB6F9
:1028E000F894DEBF0FBECDBF8C01CB01F801118281
:1028F0001082138212821582148242E09E012F5FA1
:102900003F4F7901B9010E940321F7010190002096
:10291000E9F73197AF014E195F09B701C8010E946D
:10292000451462960FB6F894DEBF0FBECDBFDF919F
:10293000CF911F910F91FF90EF900895EF92FF922A
:102940000F931F93CF93DF93CDB7DEB7A1970FB649
:10295000F894DEBF0FBECDBF7C01CB01BA01F701F9
:1029600011821082138212821582148242E0420F79
:102970008E010F5F1F4F0E94E5200097C9F0FC01F8
:1029800001900020E9F73197AF01481B590BBC01BA
:10299000C7010E944514A1960FB6F894DEBF0FBE82
:1029A000CDBFDF91CF911F910F91FF90EF900895D0
:1029B000C7010E94AA13EFCF1F93CF93DF9385ED3A
:1029C0008093BC008091A5049091A604A091A704D7
:1029D000B091A8040796A11DB11D23E0B695A79557
:1029E000979587952A95D1F72091BC0024FD03C0C7
:1029F0001092ED0452C04091A5045091A60460913C
:102A0000A7047091A804452B462B472B69F3009728
:102A1000A105B10541F025E32A95F1F700000197E2
:102A2000A109B109E1CF8091A404C1E0C093A3043E
:102A3000882399F1D091B8001091BA008091BC0020
:102A40008A7B8093BC0060E084E10E94DC0660E049
:102A500085E10E94DC061092ED04C093EF04109211
:102A6000EE0461E084E10E94DC0661E085E10E9401
:102A7000DC068091B9008E7F8093B9008091B90007
:102A80008D7F8093B90088E48093B80085E48093BB
:102A9000BC001093BA00D093B800DF91CF911F9182
:102AA00008950C94AD241F920F920FB60F9211242B
:102AB0000BB60F922F933F934F935F936F937F9338
:102AC0008F939F93AF93BF93EF93FF9385E295E02E
:102AD0000E948C05FF91EF91BF91AF919F918F91D3
:102AE0007F916F915F914F913F912F910F900BBE0E
:102AF0000F900FBE0F901F9018951F920F920FB658
:102B00000F9211240BB60F922F938F939F93EF93F5
:102B1000FF93E0913505F09136058081E0913B050A
:102B2000F0913C0582FD1DC0908180913E058F5F34
:102B30008F7320913F05821741F0E0913E05F0E050
:102B4000EB5DFA4F958F80933E05FF91EF919F913A
:102B50008F912F910F900BBE0F900FBE0F901F9073
:102B600018958081F2CF1F920F920FB60F92112409
:102B70002F933F938F939F93AF93BF9380911405AF
:102B800090911505A0911605B09117053091130588
:102B900023E0230F2D3758F50196A11DB11D209379
:102BA00013058093140590931505A0931605B09313
:102BB00017058091180590911905A0911A05B091FB
:102BC0001B050196A11DB11D809318059093190551
:102BD000A0931A05B0931B05BF91AF919F918F9160
:102BE0003F912F910F900FBE0F901F90189526E8E0
:102BF000230F0296A11DB11DD2CF1F920F920FB6C7
:102C00000F9211240BB60F922F933F934F935F9324
:102C10006F937F938F939F93AF93BF93EF93FF93A4
:102C2000E0910E02F0910F021995FF91EF91BF9183
:102C3000AF919F918F917F916F915F914F913F9154
:102C40002F910F900BBE0F900FBE0F901F901895F5
:102C50001F920F920FB60F9211240BB60F922F9363
:102C60003F934F935F936F937F938F939F93AF9314
:102C7000BF93EF93FF93E0910C02F0910D02199531
:102C8000FF91EF91BF91AF919F918F917F916F9144
:102C90005F914F913F912F910F900BBE0F900FBE00
:102CA0000F901F9018951F920F920FB60F9211243C
:102CB0000BB60F922F933F934F935F936F937F9336
:102CC0008F939F93AF93BF93EF93FF93E091020293
:102CD000F09103021995FF91EF91BF91AF919F91F0
:102CE0008F917F916F915F914F913F912F910F90B5
:102CF0000BBE0F900FBE0F901F9018951F920F9252
:102D00000FB60F9211240BB60F922F933F934F9350
:102D10005F936F937F938F939F93AF93BF93EF9343
:102D2000FF93E0910002F09101021995FF91EF915C
:102D3000BF91AF919F918F917F916F915F914F91D3
:102D40003F912F910F900BBE0F900FBE0F901F90D1
:102D500018951F920F920FB60F9211240BB60F9277
:102D60002F933F934F935F936F937F938F939F9393
:102D7000AF93BF93EF93FF93E0910A02F0910B02A0
:102D80001995FF91EF91BF91AF919F918F917F9195
:102D90006F915F914F913F912F910F900BBE0F90CC
:102DA0000FBE0F901F9018951F920F920FB60F92A3
:102DB00011240BB60F922F933F934F935F936F9312
:102DC0007F938F939F93AF93BF93EF93FF93E09184
:102DD0000802F09109021995FF91EF91BF91AF910F
:102DE0009F918F917F916F915F914F913F912F9123
:102DF0000F900BBE0F900FBE0F901F9018951F9253
:102E00000F920FB60F9211240BB60F922F933F9390
:102E10004F935F936F937F938F939F93AF93BF93E2
:102E2000EF93FF93E0910602F09107021995FF914D
:102E3000EF91BF91AF919F918F917F916F915F9132
:102E40004F913F912F910F900BBE0F900FBE0F909F
:102E50001F9018951F920F920FB60F9211240BB668
:102E60000F922F933F934F935F936F937F938F9323
:102E70009F93AF93BF93EF93FF93E0910402F09180
:102E800005021995FF91EF91BF91AF919F918F919D
:102E90007F916F915F914F913F912F910F900BBE5A
:102EA0000F900FBE0F901F9018951F920F920FB6A4
:102EB0000F9211240BB60F922F933F934F935F9372
:102EC0006F937F938F939F93AF93BF93EF93FF93F2
:102ED0008091B900887F803609F44DC008F040C069
:102EE000883209F4A7C028F5803109F49BC0C8F4E2
:102EF000882309F4F7C0883009F494C0FF91EF915A
:102F0000BF91AF919F918F917F916F915F914F9101
:102F10003F912F910F900BBE0F900FBE0F901F90FF
:102F20001895883109F486C0803241F78093EC040B
:102F300014C0803409F49BC040F48033B9F3883363
:102F4000E9F68093EC0485ECAEC0803509F483C0CB
:102F5000883509F494C0883489F60E94DC14CECFF9
:102F6000883909F48AC038F5883729F050F4883652
:102F700011F0803719F683E08093ED041092EB0492
:102F800055C0883809F479C0803919F0803809F0C3
:102F9000B5CF8091EB04803208F06FC0E091EB0474
:102FA00081E08E0F8093EB048091BB00F0E0E5534D
:102FB000FB4F80833BC0803B39F0D0F4803A09F46A
:102FC00077C0883A09F09ACF84E08093ED0410929C
:102FD000CA041092C904F0E0E0E019958091C90498
:102FE00081110FC081E08093C9041092A90409C027
:102FF000803C09F4A8CF883C09F4A5CF883B09F0B0
:103000007DCFE091CA0481E08E0F8093CA04F0E086
:10301000E755FB4F80818093BB009091CA0480915B
:10302000C90429C0809112058093BB0085EC809370
:10303000BC0064CF9091110580911005981758F548
:10304000E091110581E08E0F80931105F0E0E051D1
:10305000FB4F8081E9CFE091110581E08E0F8093D5
:1030600011058091BB00F0E0E051FB4F808390910F
:103070001105809110059817C8F285E8D8CFE09126
:10308000110581E08E0F809311058091BB00F0E067
:10309000E051FB4F80838091EF0481115ECF81E08E
:1030A0008093EE0484EA8093BC001092ED0426CF56
:1030B00085EC8093BC001092ED048091EB0480328B
:1030C00030F4E091EB04F0E0E553FB4F10826091A7
:1030D000EB0470E08BEC94E0F0E0E0E019951092E6
:1030E000EB040CCF1092EC0438CF1F920F920FB666
:1030F0000F9211248F930FB6F894A89580916000D9
:10310000886180936000109260000FBE8F910F90D5
:103110000FBE0F901F9018951F920F920FB60F922F
:1031200011240BB60F922F933F934F935F936F939E
:103130007F938F939F93AF93BF93EF93FF9348E257
:1031400051E064E271E090E080E00E94370AFF9174
:10315000EF91BF91AF919F918F917F916F915F910F
:103160004F913F912F910F900BBE0F900FBE0F907C
:103170001F9018951F920F920FB60F9211240BB645
:103180000F922F933F934F935F936F937F938F9300
:103190009F93AF93BF93EF93FF9348EA50E064EAA5
:1031A00070E083E090E00E94370AFF91EF91BF91B9
:1031B000AF919F918F917F916F915F914F913F91CF
:1031C0002F910F900BBE0F900FBE0F901F90189570
:1031D0001F920F920FB60F9211240BB60F922F93DE
:1031E0003F934F935F936F937F938F939F93AF938F
:1031F000BF93EF93FF9348E950E064E970E082E009
:1032000090E00E94370AFF91EF91BF91AF919F919B
:103210008F917F916F915F914F913F912F910F907F
:103220000BBE0F900FBE0F901F9018951F920F921C
:103230000FB60F9211240BB60F922F933F934F931B
:103240005F936F937F938F939F93AF93BF93EF930E
:10325000FF9348E850E064E870E081E090E00E946D
:10326000370AFF91EF91BF91AF919F918F917F911D
:103270006F915F914F913F912F910F900BBE0F90E7
:103280000FBE0F901F901895CF92DF92EF92FF9292
:103290000F931F93CF93DF93109228051092270569
:1032A00088EE93E0A0E0B0E08093290590932A0592
:1032B000A0932B05B0932C0582E194E09093260512
:1032C0008093250585EC90E090933205809331053D
:1032D00084EC90E0909334058093330580EC90E08B
:1032E000909336058093350581EC90E090933805F6
:1032F0008093370582EC90E090933A0580933905EE
:1033000086EC90E090933C0580933B0510923E053F
:1033100010923F051092400510924105809152068F
:10332000803308F069C191E0980F90935206809322
:10333000C70690E0FC01EE0FFF1FE80FF91FEE53E8
:10334000FA4F88EB9BE09283818380915206803311
:1033500008F056C191E0980F909352068093C406EE
:1033600090E0FC01EE0FFF1FE80FF91FEE53FA4F3C
:1033700088EB9BE09283818301E015E01093C20605
:103380000093C1060E9401056093B9067093BA06C6
:103390008093BB069093BC061092BD061092BE06A9
:1033A0001092BF061092C006C1E0C093C3061093EE
:1033B000B7060093B6060E9401056093AE067093AF
:1033C000AF068093B0069093B1061092B2061092A9
:1033D000B3061092B4061092B506C093B8061092C8
:1033E00095061092940610929706109296061092E7
:1033F00099061092980610929A0610929B061092C7
:103400009C0610929D0610929E0610929F061092A6
:10341000A0061092A106CC24CA94DC2C7601C0929E
:10342000A606D092A706E092A806F092A9061092EE
:10343000AA061092AB061092AC061092AD0661E09F
:1034400080E00E940A0787E090E090937B068093DB
:103450007A0610927D0610927C0610927F061092DA
:103460007E061092800610928106109282061092BB
:10347000830610928406109285061092860610929A
:103480008706C0928C06D0928D06E0928E06F0924E
:103490008F0610929006109291061092920610924A
:1034A000930661E00E940A07109256061092550694
:1034B00024E530E0309358062093570680E390E0EF
:1034C00090935A068093590630935C0620935B06CE
:1034D00090935E0680935D061092690610926006D6
:1034E00010925F061092620610926106C093680601
:1034F000C09367068FEF9FEF9093660680936506F3
:103500009093640680936306C0936A0610926B06DC
:1035100010926D0610926C0684E294E0909354062B
:10352000809353068CE190E00E94FE27EC018BE033
:103530008B8788E08C878FEF8E8789E08D87EDEF12
:10354000F8E0E491F0E0EE0FFF1FE852F74F8591AD
:1035500094919E8B8D8BEDE9F8E0E491EA8FEBEF8F
:10356000F8E0E491F0E0EE0FFF1FE852F74F85918D
:103570009491988B8F87EBE9F8E0E491EF8BEAEF79
:10358000F8E0E491F0E0EE0FFF1FE852F74F85916D
:1035900094919A8B898BEAE9F8E0E491E98F80E0D5
:1035A00099E0ADE3B0E08C839D83AE83BF8381E07F
:1035B00090E0998788871A861B8E82E090E00E94AF
:1035C000FE2720E5FC01208311829B838A831982D8
:1035D0001882D0936F06C0936E068AE080937106BE
:1035E0008CE080937006DF91CF911F910F91FF9037
:1035F000EF90DF90CF9008958FEF8093C706A5CE10
:103600008FEF8093C406B8CECF93DF93CDB7DEB7EC
:10361000C254D1090FB6F894DEBF0FBECDBF789467
:1036200084B5826084BD84B5816084BD85B58260C7
:1036300085BD85B5816085BD80916E008160809378
:103640006E001092810080918100826080938100E1
:1036500080918100816080938100809180008160F1
:10366000809380008091B10084608093B10080914C
:10367000B00081608093B00080919100826080935F
:1036800091008091910081608093910080919000E1
:103690008160809390008091A10082608093A1005E
:1036A0008091A10081608093A1008091A000816041
:1036B0008093A000809121018260809321018091FC
:1036C000210181608093210180912001816080939C
:1036D000200180917A00846080937A0080917A0042
:1036E000826080937A0080917A00816080937A0072
:1036F00080917A00806880937A001092C100E091F6
:103700003505F091360582E08083E0913105F09136
:1037100032051082E0913305F09134058FEC8083FF
:1037200010923D05E0913905F0913A0586E08083DD
:10373000E0913705F0913805808180618083E091C8
:103740003705F0913805808188608083E0913705E6
:10375000F0913805808180688083E0913705F09191
:10376000380580818F7D808361E081E00E940A07B7
:1037700060E086E10E940A0761E080E00E940A079B
:1037800060E086E30E940A0760E088E30E940A077F
:1037900060E085E40E940A0760E084E40E940A0772
:1037A00061E084E00E940A0761E084E00E940A0769
:1037B00064E070E084EC96E00E94AF0963E070E0A2
:1037C00087EC96E00E94AF0900916E0610916F069B
:1037D000D8011B968C918F3F41F061E00E940A074F
:1037E00061E0F80183850E94DC06D8018D919C91EF
:1037F000892B09F48CC4FFB6F89480911C058111C3
:1038000027C0E7E2F9E08491E7ECF8E09491E82F33
:10381000F0E0EE0FFF1FE25AF74FA591B491EC9143
:10382000E92321F461E085E30E94DC0661E085E3A1
:103830000E940A078CB580618CBD8CB580648CBDFC
:1038400061E084E30E940A0761E083E30E940A07C3
:1038500080911C058F5F80931C05FFBE81E0F801FD
:10386000838F61E0809171060E940A078091700643
:1038700087FD03C061E00E940A0784E0809373061D
:1038800088E28093720610927406109275060E9468
:10389000960B1092760680917706833508F483E5BF
:1038A0008093770610927806809179068F3208F41B
:1038B0008FE2809379060E94E60B61E082E10E942C
:1038C000DC061E01F7E02F0E311C84E996E00E9411
:1038D000F10A84E40E943B077C0185E40E943B07D7
:1038E0008C0124EB30E0D7010E94E3272FEF33E077
:1038F00040E050E00E94BB24490130932005209312
:103900001F0524EB30E0D8010E94E3272FEF33E0BE
:1039100040E050E00E94BB24690130931E052093D3
:103920001D05B40187EC96E00E943309B60184ECD2
:1039300096E00E94330983E40E94B3069EAF8DAFE8
:1039400087E30E943B0724E630E0DC010E94E32786
:103950002FEF33E040E050E00E94BB2429AB3AABAC
:103960004BAB5CAB89E30E943B07BC01990F880B12
:10397000990B0E94902320E030E040EA50E40E943E
:10398000EF2320E030EC4FE754E40E948B256B01DD
:103990007C0120E030E44CE156E40E94EF234B012F
:1039A0005C01A701960160E070E080EA90E40E946B
:1039B0001E259B01AC01C501B4010E948B252AE69E
:1039C0003CEB44E95FEB0E9481262AE134E342E5C7
:1039D00059E40E94EF236FAB78AF89AF9AAF8AE3C7
:1039E0000E94B3069EAB8DAB86E10E94B3069CAFEE
:1039F0008BAF86E30E943B077C0188E30E943B0774
:103A00008C01B701FF0C880B990B0E94902320E0DA
:103A100030E040E85AE30E94EF2320E030E040EA43
:103A200050E40E94EF232B013C0120E030E44CE104
:103A300056E40E94EF236B017C01A301920160E038
:103A400070E080EA90E40E941E259B01AC01C70152
:103A5000B6010E948B254B015C010E9439266B0147
:103A60007C0122EC3BE849EB51E30E94EF23A701E4
:103A700096010E94EF23A70196010E94EF2323964F
:103A80006CAF7DAF8EAF9FAF239722EB3FEF46E940
:103A900059E3C701B6010E94EF2325EB3EEC46E354
:103AA0005AE30E941F259B01AC0123966CAD7DADAE
:103AB0008EAD9FAD23970E941F259B01AC0160E056
:103AC00070E080E89FE30E948B256B017C01A301DD
:103AD0009201C301B2010E94EF232B013C0120E0BF
:103AE00030E040E250E4C501B4010E94EF239B01A5
:103AF000AC01C301B2010E948B2520E030E04AE70F
:103B000054E40E94EF239B01AC01C701B6010E945F
:103B10001E2523E333E948E853E40E941E252B01C8
:103B20003C01B801110F880B990B0E94902320E0F3
:103B300030E040E85AE30E94EF2320E030E040EA22
:103B400050E40E94EF2320E030E040EC50E40E947B
:103B5000EF234B015C010E948513109260061092C6
:103B60005F0610926206109261066DE574E083E5CF
:103B700096E00E946312C301B2010E94B81266E689
:103B800074E083E596E00E94631289A99AA9ABA923
:103B9000BCA9B7FFE7C26DE283E596E00E94070F7C
:103BA00069A97AA98BA99CA9909580957095619532
:103BB0007F4F8F4F9F4F4AE00E94721268E574E07A
:103BC00083E596E00E94631260E774E083E596E087
:103BD0000E9463126FA978AD89AD9AAD0E94B812A8
:103BE00069E774E083E596E00E946312C501B401C1
:103BF0000E94B812ADA9BEA964E874E0AB2B11F025
:103C00006FE874E083E596E00E94631268E574E073
:103C100083E596E00E946312EDADFEADEF2B11F04F
:103C20000E9485130E94E60B8BE30E943B07BC01B8
:103C3000990F880B990B0E9490232AE939E949E9E9
:103C400050E40E94EF2320E030EC4FE754E40E9460
:103C50008B256B017C018AE796E00E94F10A20E047
:103C600030E040E250E4C701B6010E94EF2320E0BB
:103C700030E040EC50E40E94892318160CF478C21E
:103C80008AEF90E0A0E0B0E08093800690938106F8
:103C9000A0938206B0938306809384069093850652
:103CA000A0938606B0938706109288061092890624
:103CB00010928A0610928B068FEF9FEFDC018093A3
:103CC0008C0690938D06A0938E06B0938F068091FC
:103CD0007E0690917F06892B81F481E090E090939D
:103CE0007F0680937E060E94F50460939006709391
:103CF0009106809392069093930660E082E10E9481
:103D0000DC0681E08093240586E195E090930B0228
:103D100080930A02809169008F73806480936900A8
:103D2000EB9A30E020E050E040E06AE070E083E2AF
:103D300095E00E94EA08EB9887E195E090930B02EA
:103D400080930A0264EF71E080E090E00E946708CF
:103D5000C090BD06D090BE06E090BF06F090C006B1
:103D60008091C306882309F417C2E091C106F0913F
:103D7000C20619950091B9061091BA062091BB06AA
:103D80003091BC06DC01CB01801B910BA20BB30B65
:103D9000C80ED91EEA1EFB1E9CE2C91691E0D90688
:103DA000E104F10408F481C0E0902105F0902205BF
:103DB000C301B2010E94FD25162F6FA978AD89AD10
:103DC0009AAD0E94FD25C62EC501B4010E94FD25B5
:103DD000D62EE114A0E1FA0608F4E2C1F12CE12CA0
:103DE00060E0C7010E945115BFEFEB1AFB0AE11416
:103DF000E0E1FE06A9F71092220510922105612F3D
:103E000090E080E00E94511580912105909122055B
:103E10000496909322058093210569A90E9451156B
:103E2000809121059091220504969093220580931C
:103E300021056C2D0E94511580912105909122053C
:103E4000049690932205809321056D2D0E945115B3
:103E500080912105909122050496909322058093EC
:103E600021056DA90E94511580912105909122058F
:103E700004969093220580932105E091C106F0916C
:103E8000C20619956093B9067093BA068093BB0673
:103E90009093BC061092BD061092BE061092BF060B
:103EA0001092C00681E08093C3062BAD3CAD21305B
:103EB000310509F07CC18AE090E0A0E0B0E0809399
:103EC0009A0690939B06A0939C06B0939D068093C0
:103ED0009E0690939F06A093A006B093A106109211
:103EE000A2061092A3061092A4061092A5068FEFC8
:103EF0009FEFDC018093A6069093A706A093A806E7
:103F0000B093A9068091980690919906892B71F437
:103F100030939906209398060E94F5046093AA06B0
:103F20007093AB068093AC069093AD06C090B2063A
:103F3000D090B306E090B406F090B5068091B80634
:103F4000882309F430C1E091B606F091B7061995BF
:103F50000091AE061091AF062091B0063091B106E7
:103F6000DC01CB01801B910BA20BB30BC80ED91E39
:103F7000EA1EFB1E98E5C91692E0D906E104F10499
:103F800008F4C2C021E0B301A201CE018B960E94C9
:103F90009E14A9A9BAA9BD01BB0F880B990B0E9459
:103FA0009023AB01BC0123E0CE0185960E949E14B4
:103FB00023E04FA958AD69AD7AADCE014F960E946E
:103FC0009E1423E0B501A401CE0149960E949E14DF
:103FD0006DA97EA9CE0143960E94661460912405C6
:103FE00070E0CE010D960E9466141A8219821C821E
:103FF0001B821E821D826BA57CA56115710531F0A7
:104000004FA558A9CE0101960E944514CE010196F4
:104010000E94EE13BE016B5D7F4F0E9412140E943E
:10402000EE13BE01615E7F4F0E9412140E94EE13D8
:10403000BE01675E7F4F0E9412140E94EE13BE0104
:104040006D5E7F4F0E9412140E94EE13BE01635FEB
:104050007F4F0E94121418861F821A8619861C86AA
:104060001B868215930559F0FC01608171816115F1
:10407000710529F044815581C1010E944514CE018A
:1040800001960E94BC134B855C856F81788585E223
:1040900095E00E94180568E574E085E295E00E94CD
:1040A0006312E091B606F091B70619956093AE06DB
:1040B0007093AF068093B0069093B1061092B2064B
:1040C0001092B3061092B4061092B50681E0809368
:1040D000B806C1010E94BC13CE010D960E94BC130C
:1040E000CE0143960E94BC13CE0149960E94BC1398
:1040F000CE014F960E94BC13CE0185960E94BC1340
:10410000CE018B960E94BC130E941B06DECB61E0A1
:10411000F80184850E940A07D8011A968C911A9793
:104120008B7FE1F460E01C968C910E94DC06D80144
:104130001D968C918F3F41F061E00E940A0761E07B
:10414000F80185850E94DC06D8011E968C918F3F70
:1041500009F484CB60E00E940A0780CB61E0F8019B
:104160008485E3CF4AE069A97AA98BA99CA924CDCB
:1041700010927F0610927E0610927D0610927C06A9
:1041800060E080917A060E94DC0661E082E10E9494
:10419000DC0610922405B8CD80E090E0DC01F8CD7B
:1041A000612FC7012FCE80E090E0DC01DFCE1092BE
:1041B000990610929806109297061092960660E063
:1041C000809194060E94DC069FCFEF920F931F937D
:1041D000CF93DF93E80134E047FD34E1042E000C77
:1041E000550B57FF03C0519541955109E32E022FFE
:1041F000242FAE010E942821CE01DF91CF911F9183
:104200000F91EF900895BB274A3031F4992322F49F
:10421000BDE2909581959F4F0C940F21BB27FB0128
:104220005527AA27880F991FAA1FA41710F0A41BAF
:1042300083955051B9F7A05DAA3308F0A95DA19309
:10424000009779F7B111B1931192CB010C947923B6
:104250008F929F92AF92BF92CF92DF92EF92FF9296
:104260000F931F93CF93DF9300D000D000D0CDB732
:10427000DEB76A01F22EB02E102FFBE3AF2EA01690
:1042800008F41BE31F5F012F27E0AE014F5F5F4F74
:104290000E94A122BC018981982F9970913009F464
:1042A0004EC09BE2E1FC04C09E2D9170E0FC49C031
:1042B0005E2D5071E82FE87083FF55C084E09111A6
:1042C00001C083E0EF2DE81B8F1508F0E0E0D60178
:1042D0008E2F20E25523C9F1992329F0D6019C9312
:1042E000C60101966C0196012D5F3F4FE2FE33C07F
:1042F0008EE4D6018C9391E411969C9311971296BB
:104300008C93D9018E2F90E281112AC0E20FF32FF6
:10431000F11D10828EEF9FEF29960FB6F894DEBF45
:104320000FBECDBFDF91CF911F910F91FF90EF9006
:10433000DF90CF90BF90AF909F908F9008959DE2B7
:10434000B7CF90E2B5CF2D9381508111FCCFCE0E27
:10435000D11CE0E0C1CF8EE6D6018C9391E6CCCFA4
:104360009D938150D1CF482F447082FF3DC084E09F
:10437000911101C083E08F1510F4EF2DE81BD601D9
:104380008E2F20E2552309F1992329F0D6019C9321
:10439000C60101966C0196012D5F3F4FE2FE1BC0E6
:1043A00089E4D6018C938EE411968C93119786E460
:1043B00012968C93D9018E2F90E2882309F4A6CF10
:1043C0009D938150FACF2D9381508111FCCFCE0E59
:1043D000D11CE0E0D9CF89E6D6018C938EE6119608
:1043E0008C93119786E6E4CF9B0177FF02C030E003
:1043F00020E0A1E0B0E0911102C0B0E0A0E0F9013E
:104400003196AE0FBF1F8B2C912CBB2009F461C0DD
:104410005401EFEFAE1ABE0AAA0DBB1DFA161B0619
:1044200019F014F04F2D4A1B511188C0E3FC59C0FC
:104430007601A42FB0E2A1114FC0C40ED11C992364
:1044400009F45BC040E0D6011196F60190836D013E
:10445000552309F448C0012F060F9A81582F507137
:1044600084FF03C0913309F4015010160CF047C0CB
:10447000093008F008E0EEE2FE2E5B01A01AB10858
:1044800085019194819491082F3F320729F4D60138
:10449000FC92F60131966F016217730794F10217CF
:1044A00013077CF5DB01A21BB30BAA24A394B12C48
:1044B000AC0EBD1EAA0DBB1D11968C912150310969
:1044C000D601119628153905F4F0F60180836D01A7
:1044D000DBCFB12CA12CA0CFF701B1937F01A1506C
:1044E000AACF9111B0CFD601942F50E302C05D93B3
:1044F00091509111FCCFC40ED11C40E0ACCF01E033
:10450000BACF80E3DBCF6217730731F4963388F4B8
:10451000953311F4552369F0F6018083FD01842F52
:1045200090E2811108C0A40FB11D1C9290E080E0C0
:10453000F3CE81E3F1CF91938150F3CF911183CFEB
:104540008ACF283008F027E03327DA01990F311D90
:1045500087FD916000966105710539F432602E5F28
:104560003D9330E32A95E1F708959F3F30F080387E
:104570007105610509F03C5F3C5F3D93913008F0A7
:104580008068911DDF93CF931F930F93FF92EF925B
:10459000192F987F9695E92F96959695E90FFF2705
:1045A000E858FD4F99273327EE24FF24A701E701A0
:1045B00005900894079428F4360FE71EF81E491F4B
:1045C000511D660F771F881F991F0694A1F705904C
:1045D000079428F4E70EF81E491F561FC11D770FD8
:1045E000881F991F661F0694A1F70590079428F469
:1045F000F80E491F561FC71FD11D880F991F661F30
:10460000771F0694A1F70590079420F4490F561FD1
:10461000C71FD81F990F661F771F881F0694A9F719
:1046200084911095177041F0D695C7955795479589
:10463000F794E7941A95C1F7EEE1F2E068941590CB
:10464000159135916591959105907FE27395E118EB
:10465000F10A430B560BC90BD009C0F7E10CF11E50
:10466000431F561FC91FD01D7EF4703311F48A9565
:10467000E6CFE894015030F0080F0AF40027021743
:1046800008F4202F2395022F7A3328F079E37D93C5
:104690002A95E9F710C07D932A9589F60694979597
:1046A0006795379517951794E118F10A430B560B48
:1046B000C90BD00998F023957E9173957A3308F051
:1046C00070E37C932013B8F77E9170617D9330F096
:1046D000839571E37D9370E32A95E1F71124EF90C0
:1046E000FF900F911F91CF91DF91992787FD9095B2
:1046F0000895DC01FC01672F71917723E1F7329770
:1047000004C07C916D9370836291AE17BF07C8F3AC
:1047100008950E94CB2308F481E00895E89409C02D
:1047200097FB3EF490958095709561957F4F8F4FE4
:104730009F4F9923A9F0F92F96E9BB279395F695FA
:10474000879577956795B795F111F8CFFAF4BB0F78
:1047500011F460FF1BC06F5F7F4F8F4F9F4F16C0DC
:10476000882311F096E911C0772321F09EE8872F66
:10477000762F05C0662371F096E8862F70E060E022
:104780002AF09A95660F771F881FDAF7880F96959B
:10479000879597F90895990F0008550FAA0BE0E83F
:1047A000FEEF16161706E807F907C0F012161306F3
:1047B000E407F50798F0621B730B840B950B39F433
:1047C0000A2661F0232B242B252B21F408950A2699
:1047D00009F4A140A6958FEF811D811D08950E94C7
:1047E00002240C9473240E94652438F00E946C24E7
:1047F00020F0952311F00C945C240C946224112475
:104800000C94A7240E94842470F3959FC1F3950F04
:1048100050E0551F629FF001729FBB27F00DB11D44
:10482000639FAA27F00DB11DAA1F649F6627B00DD4
:10483000A11D661F829F2227B00DA11D621F739FBD
:10484000B00DA11D621F839FA00D611D221F749FCB
:104850003327A00D611D231F849F600D211D822F12
:10486000762F6A2F11249F5750409AF0F1F0882339
:104870004AF0EE0FFF1FBB1F661F771F881F915066
:104880005040A9F79E3F510580F00C945C240C9495
:10489000A7245F3FE4F3983ED4F386957795679518
:1048A000B795F795E7959F5FC1F7FE2B880F911D90
:1048B0009695879597F9089597F99F6780E870E036
:1048C00060E008959FEF80EC089500240A94161686
:1048D000170618060906089500240A9412161306EE
:1048E000140605060895092E0394000C11F488237C
:1048F00052F0BB0F40F4BF2B11F460FF04C06F5F98
:104900007F4F8F4F9F4F089557FD9058440F551F6D
:1049100059F05F3F71F04795880F97FB991F61F041
:104920009F3F79F087950895121613061406551FB8
:10493000F2CF4695F1DF08C0161617061806991F24
:10494000F1CF86957105610508940895E894BB2719
:1049500066277727CB0197F90895262FF999FECF7F
:104960001FBA92BD81BD20BD0FB6F894FA9AF99A8C
:104970000FBE01960895052E97FB1EF400940E9429
:10498000D22457FD07D00E94ED2407FC03D04EF43B
:104990000C94D22450954095309521953F4F4F4F20
:1049A0005F4F089590958095709561957F4F8F4FDB
:1049B0009F4F08950E940F25A59F900DB49F900DC5
:1049C000A49F800D911D11240895B7FF0C94DA2443
:1049D0000E94DA24821B930B0895A1E21A2EAA1BCF
:1049E000BB1BFD010DC0AA1FBB1FEE1FFF1FA2179F
:1049F000B307E407F50720F0A21BB30BE40BF50B9C
:104A0000661F771F881F991F1A9469F76095709524
:104A1000809590959B01AC01BD01CF010895A29FA7
:104A2000B001B39FC001A39F700D811D1124911D82
:104A3000B29F700D811D1124911D08955058BB2700
:104A4000AA270E9436250C9473240E94652438F00E
:104A50000E946C2420F039F49F3F19F426F40C9442
:104A600062240EF4E095E7FB0C945C24E92F0E948D
:104A7000842458F3BA17620773078407950720F058
:104A800079F4A6F50C94A6240EF4E0950B2EBA2F1B
:104A9000A02D0B01B90190010C01CA01A001112444
:104AA000FF27591B99F0593F50F4503E68F11A16F0
:104AB000F040A22F232F342F4427585FF3CF469581
:104AC00037952795A795F0405395C9F77EF41F16A3
:104AD000BA0B620B730B840BBAF09150A1F0FF0F6D
:104AE000BB1F661F771F881FC2F70EC0BA0F621F59
:104AF000731F841F48F4879577956795B795F79549
:104B00009E3F08F0B0CF9395880F08F09927EE0FDD
:104B10009795879508950E949F250C9473240E9471
:104B20006C2458F00E94652440F029F45F3F29F07E
:104B30000C945C2451110C94A7240C9462240E94C0
:104B4000842468F39923B1F3552391F3951B550BF6
:104B5000BB27AA2762177307840738F09F5F5F4F50
:104B6000220F331F441FAA1FA9F335D00E2E3AF08F
:104B7000E0E832D091505040E695001CCAF72BD0A7
:104B8000FE2F29D0660F771F881FBB1F26173707F8
:104B90004807AB07B0E809F0BB0B802DBF01FF272A
:104BA00093585F4F3AF09E3F510578F00C945C2487
:104BB0000C94A7245F3FE4F3983ED4F38695779551
:104BC0006795B795F7959F5FC9F7880F911D9695E3
:104BD000879597F90895E1E0660F771F881FBB1F3F
:104BE000621773078407BA0720F0621B730B840BEC
:104BF000BA0BEE1F88F7E09508950E948C2488F088
:104C00009F5798F0B92F9927B751B0F0E1F0660F90
:104C1000771F881F991F1AF0BA95C9F714C0B130D1
:104C200091F00E94A624B1E008950C94A624672F69
:104C3000782F8827B85F39F0B93FCCF38695779500
:104C40006795B395D9F73EF49095809570956195E9
:104C50007F4F8F4F9F4F08950E94CB2308F48FEF13
:104C6000089516F00C9410270C94622468940C9408
:104C70005C240E948C24A8F39923C1F3AEF3DF9344
:104C8000CF931F930F93FF92C92FDD2788232AF01C
:104C90002197660F771F881FDAF720E030E040E8A1
:104CA0005FEB9FE3883920F0803E38F021968F77C4
:104CB0000E941F25E4EEF0E004C00E941F25E1E100
:104CC000F1E00E941E278B01BE01EC01FB2E6F5705
:104CD00071097595771F880B990B0E94902328E125
:104CE00032E741E35FE30E940224AF2D9801AE0159
:104CF000FF900F911F91CF91DF910E9436250C9468
:104D00007324FA01EE0FFF1F309621053105A1F142
:104D10006115710561F48038BFE39B0749F1689420
:104D20009038810561F08038BFEF9B0741F09923EF
:104D30004AF5FF3FE1053105210519F1E894089492
:104D4000E795D901AA2329F4AB2FBE2FF85FD0F342
:104D500010C0FF5F70F4A695E0F7F73950F019F036
:104D6000FF3A38F49F779F930DD00F9007FC90582F
:104D7000089546F00C94622460E070E080E89FE3C0
:104D800008954FE79F775F934F933F932F930E9430
:104D900039262F913F914F915F910E94EF230C9400
:104DA000DE260E94CB23880B990B089529F416F078
:104DB0000C945C240C94A6240C9462240E948C24F1
:104DC000A8F39638A0F707F80F92E8942BE33AEA95
:104DD00048EB5FE70E9405240F920F920F924DB7A8
:104DE0005EB70F920E948727EEE3F1E00E941E2734
:104DF0004F915F91EF91FF91E595EE1FFF1F49F0F5
:104E0000FE57E0684427EE0F441FFA95E1F74195FD
:104E1000550B0E9451270F9007FE0C9445270895CB
:104E20009F3F31F0915020F4879577956795B7951E
:104E3000880F911D9695879597F90895DF93CF93E5
:104E40001F930F93FF92EF92DF927B018C01689486
:104E500006C0DA2EEF010E940224FE01E894A5911B
:104E60002591359145915591A6F3EF010E94362584
:104E7000FE019701A801DA9469F7DF90EF90FF90A7
:104E80000F911F91CF91DF9108959B01AC0160E0DC
:104E900070E080E89FE30C948B250C945C240C94C8
:104EA00010270E948C24D8F39923C9F3940F511D25
:104EB000A3F39150504094F059F0882332F0660FDC
:104EC000771F881F91505040C1F79E3F51052CF726
:104ED000880F911D9695879597F908955F3FACF0DF
:104EE000983E9CF0BB27869577956795B79508F413
:104EF000B1609395C1F7BB0F58F711F460FFE8CF8D
:104F00006F5F7F4F8F4F9F4FE3CF0C94A724FA0121
:104F1000DC01AA0FBB1F9B01AC01BF5728F422275D
:104F200033274427507820C0B75190F4AB2F00248A
:104F3000469537952795011CA395D2F3002071F073
:104F4000220F331F441FB395DAF30ED00C941E25A5
:104F500061307105A0E88A07B94630F49B01AC01C5
:104F60006627772788279078309621F02083318331
:104F7000428353830895991B79E004C0991F9617C3
:104F800008F0961B881F7A95C9F78095089597FBBE
:104F9000072E16F4009407D077FD09D00E94EA2767
:104FA00007FC05D03EF4909581959F4F089570952C
:104FB00061957F4F0895EE0FFF1F881F8BBF0790ED
:104FC000F691E02D19940E940F25B7FF0895821BDA
:104FD000930B0895AA1BBB1B51E107C0AA1FBB1F5F
:104FE000A617B70710F0A61BB70B881F991F5A9575
:104FF000A9F780959095BC01CD0108950F931F935B
:10500000CF93DF938230910510F482E090E0E0913D
:10501000CC06F091CD0630E020E0B0E0A0E0309783
:1050200099F42115310509F44AC0281B390B2430A5
:105030003105D8F58A819B816115710589F1FB01E4
:1050400093838283FE0111C04081518102811381CB
:1050500048175907E0F04817590799F4109761F07D
:1050600012960C93129713961C933296CF01DF91F0
:10507000CF911F910F9108950093CC061093CD0608
:10508000F4CF2115310551F04217530738F0A9012B
:10509000DB019A01BD01DF01F801C1CFEF01F9CFBA
:1050A0009093CD068093CC06CDCFFE01E20FF31F87
:1050B000819391932250310939832883D7CF20914E
:1050C000CA063091CB06232B41F420910A0430917B
:1050D0000B043093CB062093CA062091080430912C
:1050E00009042115310541F42DB73EB740910C0458
:1050F00050910D04241B350BE091CA06F091CB06AC
:10510000E217F307A0F42E1B3F0B2817390778F09E
:10511000AC014E5F5F4F2417350748F04E0F5F1FFD
:105120005093CB064093CA06819391939FCFF0E0B2
:10513000E0E09CCFCF93DF930097E9F0FC0132973A
:1051400013821282A091CC06B091CD06ED0130E021
:1051500020E01097A1F420813181820F931F2091CC
:10516000CA063091CB062817390709F061C0F093C1
:10517000CB06E093CA06DF91CF910895EA01CE17DE
:10518000DF07E8F54A815B819E0141155105B1F7C2
:10519000E901FB83EA8349915991C40FD51FEC17AC
:1051A000FD0761F4808191810296840F951FE901CA
:1051B00099838883828193819B838A83F0E0E0E0F6
:1051C00012968D919C9113970097B9F52D913C9172
:1051D0001197CD010296820F931F2091CA0630913C
:1051E000CB062817390739F6309751F51092CD06BE
:1051F0001092CC06B093CB06A093CA06BCCFD38343
:10520000C28340815181840F951FC817D90761F46B
:105210004E5F5F4F88819981480F591F51834083AA
:105220008A819B81938382832115310509F0B0CF58
:10523000F093CD06E093CC069ECFFD01DC01C0CFFC
:1052400013821282D7CF4F925F926F927F928F928A
:105250009F92AF92BF92CF92DF92EF92FF920F9305
:105260001F93CF93DF938C01009799F4CB01DF91CB
:10527000CF911F910F91FF90EF90DF90CF90BF9053
:10528000AF909F908F907F906F905F904F900C9415
:10529000FE27FC01E60FF71F9C0122503109E2179F
:1052A000F30708F4AEC0D901CD91DC911197C61770
:1052B000D70720F1C530D10578F0CE0104978617C5
:1052C000970750F0C61BD70B2297C193D1936D93CC
:1052D0007C93CF010E949A28C801DF91CF911F9142
:1052E0000F91FF90EF90DF90CF90BF90AF909F9085
:1052F0008F907F906F905F904F9008955B01AC1AF4
:10530000BD0A4C018C0E9D1EA091CC06B091CD061D
:10531000512C412CF12CE12C109731F58091CA06CB
:105320009091CB068815990509F05CC04616570682
:1053300008F058C08091080490910904009741F446
:105340008DB79EB740910C0450910D04841B950BB2
:10535000E817F90708F055C0F093CB06E093CA06AA
:10536000F90171836083B8CF8D919C91119712964A
:105370006C90129713967C901397A815B90559F560
:105380006C0142E0C40ED11CCA14DB0420F1AC0154
:105390004A195B09DA011296159780F062827382CE
:1053A00051834083D9016D937C93E114F10471F032
:1053B000D7011396FC93EE9312978ECF22968C0F03
:1053C0009D1FF90191838083F301EFCFF093CD0608
:1053D000E093CC0681CF4816590608F42C017D01D4
:1053E000D3019ACFCB010E94FE277C01009749F0A0
:1053F000AE01B8010E94092AC8010E949A288701BB
:105400006BCF10E000E068CF81E090E0F8940C945E
:10541000192AFB01DC0102C001900D92415050405D
:10542000D8F70895FB01DC0101900D920020E1F70F
:065430000895F894FFCF7F
:105436001705170517051705170517051705170586
:105446000000000000000000000000000000000056
:105456000000000000000000000000000000000046
:10546600000000000000C0E0F0F8FCFCFEFFFCE0DD
:105476000000000000000000000000000000000026
:105486000000000000000000000000000000000016
:105496000000000000000000000000000000000006
:1054A6000000000000F8F8F8F8F8F8F8F8F8F8F84E
:1054B600F8F0F0E0E0C080C0FCFFFFFFFF7F3F7F19
:1054C600FFFFFFFFFF0000000000000000000000DB
:1054D60000000000000000000000000000000000C6
:1054E60000000000000000000000000000000000B6
:1054F600000000000000000000000F1F3F7FFFFFBC
:10550600FFFFFFFFFFFFE7C7C7878F9F9FFFFFFFD5
:10551600C1C0E0FCFFFFFFFFFFFCFCFCFCFEFEFE43
:10552600FCFCF8F8F0E0C0C000000000000000003D
:105536000000000000000000000000000000000065
:105546000000000000000000000000000000000055
:105556000080C0E0F1FBFFFFFFFFFF7F1F0F0F87FB
:10556600E7FFFFFF1F1F3FF9F8F8F8F8F8F8FDFF0F
:10557600FFFFFFFFFFFFFFFF7F3F0F070100000058
:105586000000000000000000000000000000000015
:105596000000000000000000000000000000000005
:1055A600000000F0FEFFFFFFFFFFFFFFFFFFFFFE13
:1055B6007E3F3F0F1FFFFFFFFCF0E0F1FFFFFFFF05
:1055C600FFFCF001010101010101010000000000E2
:1055D60000000000000000000000000000000000C5
:1055E60000000000000000000000000000000000B5
:1055F600000000000000000303030303030303018C
:1056060001010100000000000000030F1F3F7F7F23
:10561600FFFFFFFF7F7F1F03000000000000000068
:105626000000000000000000000000000000000074
:1056360000000000000000000000CE068000000010
:105646000000AE0518054505FB05760554056805F9
:1056560000000000070F180560125F125C0CC008FE
:10566600AC118411A0119411B311C008CD0C4B0CD0
:105676004B111211CD10B0103810D90F6E616E009B
:10568600696E66006F7666000D0A002F0054656D20
:10569600702843293A0048756D656461643A2000B4
:1056A6004C757A286C7578290057696E64286D2FB9
:1056B60073293A00486179206C6C75766961004EF1
:0E56C6006F20686179206C6C75766961000058
:00000001FF
